:10000000E6C3000001C40000FFC30000FDC3000000
:10001000FBC30000F9C30000F7C30000F5C30000F4
:10002000F3C30000F1C30000EFC30000EDC3000004
:10003000EBC30000E9C30000E7C30000E5C3000014
:100040000C943B34E1C30000DFC30000DDC30000BB
:10005000DBC30000D9C30000D7C30000D5C3000034
:10006000D3C30000D1C30000CFC30000CDC3000044
:100070000C947D34C9C30000C7C30000E71DE91D0F
:10008000EC1DEF1DF21DE51DF41DF71D3737F6368B
:100090003A37C6369936ED35B335543596350000C6
:1000A0000000323801083200000042300208C80067
:1000B000000052280307F401000053200407E8035E
:1000C0000000631C0506D0070000641807068813AB
:1000D000000074140A051027000075100F05983AE7
:1000E0000000760A1904A8610000770623040000C6
:1000F0000000000000FAFA0000C000C00028FE283E
:10010000FE284854FE5424462610C8C40A44AA9225
:100110006C0000C0A0000082443800003844820017
:1001200028107C102810107C101000000C0A001001
:1001300010101010000006060040201008047CA2D9
:10014000928A7C0002FE420062928A86428CD2A28F
:10015000828408FE4828189CA2A2A2E40C92925223
:100160003CC0A0908E806C9292926C789492926037
:1001700000006C6C0000006C6A00008244281028AB
:1001800028282828102844820060908A80407C8299
:100190009E924C7E8888887E6C929292FE448282E7
:1001A000827C38448282FE82929292FE809090906D
:1001B000FE5E9292827CFE101010FE0082FE820093
:1001C00080FC82020482442810FE02020202FEFE2B
:1001D000403040FEFE081020FE7C8282827C6090CF
:1001E0009090FE7A848A827C62949890FE8C92929F
:1001F00092628080FE8080FC020202FCF80402040D
:10020000F8FC021C02FCC6281028C6E0100E10E004
:10021000C2A2928A8653434F52453A20004E455718
:1002200020484947482053434F52453A2000474110
:100230004D45204F5645522100310032003300FF1A
:10024000000000FF000000FFFFFF0000FFFFFF00B5
:1002500080FFFFFF00008B00640000808000FF7FB4
:1002600019197020B2AA1E90FF228B2240E0D046BE
:1002700082B44B00826B8E23556B2F66CDAA7CFC1B
:10028000008000808A2BE28B0000FF8C00FFA5001D
:100290009ACD328B451390EE90A0522DA52A2AAD0F
:1002A000FF2FB22222B8860BCD853FD2691EDAA578
:1002B00020DC143CDB7093F4A460F5DEB3FF1493F0
:1002C000FF6347FFC0CBEE82EEFA8072FFD7004398
:1002D00011420043218300053203004C31430205E3
:1002E0004403028A4202810C534478CB520518E33E
:1002F0006806D914654932CA630800CF730502FE47
:1003000070CB00CF734A011E820B08848F442A45AC
:100310009B070914950E0010945000CB92C9009BC6
:10032000A40F0190A7590018B61C0099C7200820F7
:10033000E82D00E3F87F0044FF699666007F188689
:10034000E10FB603A703A003960391038903840377
:100350007E037003650358035245534554205343AD
:100360004F524553004252494748544E455353005B
:10037000414343454C45524F4D4554455200444539
:100380004255470055415254004F5054494F4E5327
:10039000004D415A450041535445524F4944530082
:1003A00054455452495300535041434520494E56F9
:1003B000414445525300534E414B45007D09D59D64
:1003C000A9BCFC0DFDBD0000000001690500000096
:1003D000026314000000055A500000000C53C800CE
:1003E0000000194AF40100002D4584030000633F1A
:1003F000B80B00008238581B0000AB2F10270000FC
:10040000D326B0360000EB215C440000FF1B50C334
:100410000000FF14040F830FD20AF1059000A1061B
:100420008C067A0659063B06230600000806ED05F1
:10043000BD05A205810500005D0530051505E80430
:10044000C1040000A30473044C0400007F4F307FFC
:100450004F317F4F207F4F21F58334F58335F5836E
:1004600024F58325F0F034F0B035F0F028F0B02911
:10047000000000EB3F35E8FF34E4BF34E43F36E8EA
:100480007F2CE87F2EEC7F257B7F207BBF21747F34
:100490001D72BF1C72BF1D709B18701B19709B19B9
:1004A000701B1AF1EE39F12E39F16E3854832CD5C8
:1004B000302D54C32DF1FA25F13A25F17A240000AC
:1004C00000E5C339654739E5CB38654F3865DC3120
:1004D000E54C3165CD30E54E30E5EC29657C29E50C
:1004E000F828657428000000C9C334C98335C043A7
:1004F0003DC04335C1832CC1C32DD08F28D00F2AD6
:10050000D80321D88321D0C320D0C321D6032D7096
:100510007F39000000EA1C34EADC35E93F24E93F7A
:1005200026FA4D14FA8D15E92C35EBFF2400000056
:10053000483935D83936427939C2793140B935C070
:10054000B92DD04335D0C335E73925E03922E0F95C
:1005500024E0B920E3F920EC792400000032B13C1A
:1005600032713DBCB12CBCF12D313139B3F134C302
:10057000F12CF4F024F4B025F03025F0F025000043
:100580000041DC3C405C3D419C3D421C39435C2CBD
:10059000439C2DDC4729D28728D28729F8471D00A4
:1005A0000000285035C8A0293C7025C82029D8F55E
:1005B00021D8F920F83A1DF17F1D000000C1873CC9
:1005C000C1073DC1873DC1073EB14B34B1CB34B10A
:1005D0004B35B1CB35A18F2CA10F2DA18F2DA10FA4
:1005E0002E914D2491CD24914D2591CD25D27C483D
:1005F000D2BC49C2B840C27841B3F43821303190FE
:100600002029906029000000D24F44D28F4533F555
:100610003CD3F53044F53444B535A04339A0033517
:10062000000000B8833578832CB4033974032DB1EE
:10063000833C71432DF2C334000000B1533CB1D36D
:100640003DA0C338A08339F53F3120C32C20832D32
:1006500031532831D329000000B0F03CB0703DB0D8
:10066000F03DA0E434A06435A0E43590D82C905837
:100670002D90D82D120C2500000082433C82833D32
:10068000A1B434A1B43547CF2800000081C53D0195
:10069000453C83C93C119438A118391194390000A4
:1006A0000001833D81B03C010C35000000010909C7
:1006B0000A0A1252121A131B135B232324242C6DD3
:1006C0002D2E367637FFF0008A28071C0723266474
:1006D0000F00F08A100704072425960FBA0A79FA4A
:1006E00006F0061314C8FF0F3F883E073407323563
:1006F00079FF9E9FF9ED3FBB7F1E79FF1FDFDBFC7B
:10070000779F7D1F8AFF0E183D773C3C773D180E82
:100710008AFF0E18BD6E3C3C6EBD180E8AFF781D18
:10072000BE6C3C3C6CBE1D788AFF0E18BE6D3C3C16
:100730006DBE180E88FF193A6DFAFA6D3A1988FFE6
:100740001A3D68FCFC683D1A140F00236300233631
:100750000023720023710023740022330011010072
:100760002377003327023377071307003323063339
:100770002603000000000176060500000002700656
:100780001400000003690650000000046207C8005E
:100790000000055907F40100000750088403000019
:1007A0000A4808B80B00000C3F09881300000F36F8
:1007B0000910270000112D0A983A000014240BA8F4
:1007C000610000191B0D50C300001E100D00112404
:1007D0001FBECFEFD0E1DEBFCDBF11E0A0E0B1E0A2
:1007E000E8E5F7E702C005900D92A634B107D9F706
:1007F00023E0A6E4B1E001C01D92A034B207E1F706
:100800000E94941D0C94AA3BFBCB87E08093B1001F
:100810008FEF8093B2000895EF92FF920F931F9392
:10082000CF93DF93EC018B017A018091B2008F3F6F
:1008300011F0B89B12C047E451E069E471E08BE429
:1008400091E0E3D1809147019091480197FD20C04C
:10085000109246011092B200B89A80914B0190918B
:100860004C01998388838091490190914A01F80154
:10087000918380838091470190914801F701918392
:100880008083DF91CF911F910F91FF90EF9008959A
:1008900080914B0190914C01919581959109909394
:1008A0004C0180934B018091490190914A019195AF
:1008B0008195910990934A018093490181E0809349
:1008C0004601C8CF8091B2008F3FE1F0B8991AC0BD
:1008D00080914601882361F12CE93FEF43E250E02B
:1008E00080914B0190914C01863A6FEF960764F529
:1008F0004091490150914A01421753070CF456C0E8
:1009000084E0089547E451E069E471E08BE491E00C
:100910007CD1809147019091480197FD2DC01092A4
:1009200046011092B200B89A809146018111D4CF4D
:100930002DED3FEF44E650E080914B0190914C014A
:10094000863A6FEF9607A4F28B3591054CF0209113
:10095000490130914A014217530774F182E008952A
:100960008091490190914A01821793071CF1481721
:10097000590734F588E0089580914B0190914C011E
:1009800091958195910990934C0180934B018091B1
:10099000490190914A0191958195910990934A015D
:1009A0008093490181E080934601BBCF48175907E6
:1009B0000CF0A6CF81E00895821793077CF6DACF7A
:1009C00080E00895CF93DF93EC018091B200611134
:1009D00026C08F3F09F447C0B89945C080914B01AC
:1009E00090914C019C01245D3F4F2935310588F0E1
:1009F00097FD37C09595879581382FEF920714F4AE
:100A000081E89FEF8038910514F08FE790E0811125
:100A10003DC01982188282E0DF91CF9108958F3F07
:100A200011F0B89B12C047E451E069E471E08BE437
:100A300091E0EBD0809147019091480197FD86C0ED
:100A4000109246011092B200B89A8091490190919B
:100A50004A019C01245D3F4F29353105D0F297FFB3
:100A6000C9CF0196C7CF47E451E069E471E08BE458
:100A700091E0CBD0809147019091480197FD4CC007
:100A8000109246011092B200B89AA8CF9A81181617
:100A90003CF59923D9F0E881F9813196F983E8830F
:100AA0002FE730E0281B310987FD3395220F331FD4
:100AB0006B8170E0C9010E94223A6F5F7F4F6E1711
:100AC0007F0754F41982188280E0A6CF81E08A83E0
:100AD00081E090E09983888382E0DF91CF9108954F
:100AE00091114EC0288139812F5F3F4F3983288370
:100AF000992787FD909581589F4F880F991F6B818B
:100B000070E00E94223A6F5F7F4F6217730724F7ED
:100B10001982188281E080CF80914B0190914C0125
:100B200091958195910990934C0180934B0180910F
:100B3000490190914A0191958195910990934A01BB
:100B40008093490181E0809346019CCF80914B01C5
:100B500090914C0191958195910990934C018093CE
:100B60004B018091490190914A019195819591099C
:100B700090934A018093490181E08093460162CFBE
:100B80001A8221E030E0B2CFCF93DF9300D0CDB70F
:100B9000DEB789836A8342E0BE016F5F7F4F83E5E2
:100BA0000E943B110F900F90DF91CF910895882301
:100BB00011F068E001C060E08DE2E6CFCF93DF93F3
:100BC0001F92CDB7DEB7198221E0AE014F5F5F4FB4
:100BD000682F83E50E946A1189810F90DF91CF9180
:100BE000089580E0EBCFFDDF91E0853E09F090E0D5
:100BF000892F0895CF93C82F81E3E0DF807F6C2F8A
:100C00006860682B81E3CF91BFCFCF92DF92EF92E4
:100C1000FF920F931F93CF93DF9300D000D000D0AB
:100C2000CDB7DEB78C016B017A0126E0AE014F5FD4
:100C30005F4F62E383E50E946A118630E9F42A81FE
:100C400030E0322F22278981282BF801318320833D
:100C50008C8190E0982F88272B81822BF60191833D
:100C600080838E8190E0982F88272D81822BF70139
:100C70009183808381E001C080E026960FB6F894CE
:100C8000DEBF0FBECDBFDF91CF911F910F91FF90BF
:100C9000EF90DF90CF9008955F926F927F928F9246
:100CA0009F92AF92BF92CF92DF92EF92FF920F93FB
:100CB0001F93CF93DF93F62E142FD22EC02EFC015C
:100CC000249131967490F72DF1707F2E322F3F7062
:100CD0005901A2942FE0A222EC012396FC01329646
:100CE0006490562E812C852D8F198B1559F1912EDC
:100CF000892D811B8A1521F1A62DB0E0082C02C098
:100D0000B595A7950A94E2F7A0FF08C00E2D2C2DEB
:100D10004D2D692D852D0E948C3806C0711004C0A0
:100D2000692D852D0E94D538839488E0881206C0ED
:100D3000DE011196FE016490ED01812C9394D8CFD1
:100D40005394D1CFDF91CF911F910F91FF90EF90EE
:100D5000DF90CF90BF90AF909F908F907F906F90DB
:100D60005F900895CF93DF9336B1A5E0B1E0E6E060
:100D7000F1E025E28C91EF0122979881932339F0DD
:100D8000853029F080818F3F91F0108210C091E072
:100D9000980F9E3F40F090819F3F51F09F5F90835E
:100DA000923331F40FC0892F963010F00CC080E0E0
:100DB0008C931396339681E0E831F807D9F6DF91EA
:100DC000CF910895208385E0F3CFE6E0F1E020E0C5
:100DD00030E090E041E064276195AC01022E02C052
:100DE000559547950A94E2F740FD60832F5F3F4F8A
:100DF00033962630310589F7089590E0FC01EE0F17
:100E0000FF1FE80FF91FEC5FFE4F8181853021F451
:100E10008EEF818381E0089580E0089590E09C0149
:100E2000220F331FF901E80FF91FEC5FFE4F4181DC
:100E3000453011F44EEF4183F901E80FF91FEC5FE3
:100E4000FE4F81E091819E3F09F080E0089590E09F
:100E5000FC01EE0FFF1FE80FF91FEC5FFE4F8181D1
:100E6000853021F08E3F31F481E008958EEF81834B
:100E700080E0089582E008958DEF809305018093CE
:100E8000080180930B0180930E01809311018093E0
:100E90001401089582EB96E00C947134FF920F9345
:100EA0001F93CF93DF93182FC62FC81B0E94D73AEA
:100EB000D0E0BE010E94223AF12EF80E0E94D73AED
:100EC000BE010E94223A012F080F0E94D73ABE01AC
:100ED0000E94223A6F2D702F810FDF91CF911F91C9
:100EE0000F91FF900895FB011082118212828535C7
:100EF00090F08A3A40F08A5A982F990F980F908371
:100F00009095918308958555982F990F980F918307
:100F1000909592830895982F990F980F92839095AA
:100F200090830895DC01EC91E29FF0011124FC9381
:100F3000FB018081829FC00111249083DA018C9192
:100F4000289F900111243C930895FC018081869F85
:100F5000C001112490838181869FC0011124918357
:100F60008281869FB0011124728308957F928F92AF
:100F70009F92AF92BF92CF92DF92EF92FF920F9328
:100F80001F93CF93DF93FC01DB015901E801129617
:100F90009C90129711968C901197AC9112810181BF
:100FA0007080842F90E08217930730F4880F991F88
:100FB0009C012A193B095901B0E0A719B109C42EB7
:100FC000D12CE12CF12C95010E94793AA7019601D0
:100FD0000E94573A720E7882A82DB0E0A01BB1098A
:100FE00095010E94793AA70196010E94573A020F93
:100FF0000983A92DB0E0A11BB10995010E94793A9E
:10100000A70196010E94573A120F1A83DF91CF91E0
:101010001F910F91FF90EF90DF90CF90BF90AF9016
:101020009F908F907F900895CF92DF92EF92FF92E2
:101030000F931F93CF93DF9300D000D000D0CDB794
:10104000DEB78C01CE0101967C0186E0F70111929A
:101050008A95E9F7F80180814AE0BE016E5F7F4F13
:1010600090E00E94073BF80181814AE0BE016C5F7D
:101070007F4F90E00E94073B87016E01F6E0CF0EA4
:10108000D11CF8018081882329F080530E94BC1C68
:10109000F80180830F5F1F4F0C151D0591F7C701E5
:1010A0000E94CD1C26960FB6F894DEBF0FBECDBFB2
:1010B000DF91CF911F910F91FF90EF90DF90CF9034
:1010C0000895AF92BF92CF92DF92EF92FF920F936B
:1010D0001F93CF93DF93CDB7DEB763970FB6F89426
:1010E000DEBF0FBECDBF0E94E63861E08FE06DDE4F
:1010F000C3DE0E94FA1DB82E0E942D1EA82E1E824D
:101100001D821F8299E098871A8219821B829C8314
:101110001A8A1B8ACE01429687DFD12CE12CFF244C
:10112000FA94C12C0E94763484E091DE182F85E079
:101130008EDE113019F4813009F472C00A891B89DE
:1011400021E04A2DBE016F5F7F4FCE0105960E94C0
:10115000691C81FF04C0093030F40F5F04C082FFB6
:1011600002C00111015080FF04C01F3030F41F5F26
:1011700004C083FF02C0111111508A89081303C0F3
:101180008B89181759F0CE0142960E94DC380A8BE1
:101190001B8BCE01429648DF86E0C82EC39487E0C1
:1011A000C812C0CF1F86188A198A1C861D861E8603
:1011B00081E0E81671F0E81648F082E0E81661F088
:1011C00083E0E812AECFF88AFF8608C0FF86FD866E
:1011D00006C0F88AFE8603C0F98AFD86FC862D2D9E
:1011E00030E08E01075F1F4F42E3BE01645F7F4F17
:1011F000CE010F96BBDE6B2DC801A7DEB801CE0174
:1012000042960E94CA380E94F438D39482E3D812DE
:1012100088CFE39484E0D12CE81283CFE12C81CFF6
:101220000E94E63860E08FE0D0DD26DE63960FB6E0
:10123000F894DEBF0FBECDBFDF91CF911F910F910C
:10124000FF90EF90DF90CF90BF90AF9008953F92C6
:101250004F925F926F927F928F929F92AF92BF92C6
:10126000CF92DF92EF92FF920F931F93CF93DF9372
:1012700000D01F92CDB7DEB7782E162F642E5901FD
:10128000802E0E94FA1D1330B0F4212F30E0F901B6
:10129000E55DFE4F1081F901E85DFE4F9080F90198
:1012A000EE0FFF1FEE5DFE4FC080D180F901E15EC1
:1012B000FE4F508008C0512C98E1C92E99E3D92ED9
:1012C00029E0922E10E0682F85E0E8DD69837A83BB
:1012D0008B83412C84E0382EF6010995552019F0B6
:1012E000632D641901C0642DCE0101967C01062D89
:1012F000292D412F872DBAD40E94F438C5010E94B0
:10130000D537439495E04912E7CFF60109950E943D
:10131000F438C5010E94D537882081F0113011F4CE
:1013200000E101C00AE010E0F60109950E94F438DE
:10133000C5010E94D5371F5F1013F6CF0F900F9095
:101340000F90DF91CF911F910F91FF90EF90DF9061
:10135000CF90BF90AF909F908F907F906F905F9055
:101360004F903F900895DF92EF92FF920F931F935B
:10137000CF93DF93162FD42E7901FC018491EF01D6
:101380002196882359F0FE01949101E0911100E02B
:1013900097014D2D612F5BDFFE01F0CFDF91CF91E3
:1013A0001F910F91FF90EF90DF900895DF92EF92E1
:1013B000FF920F931F93CF93DF93162FD42E7901B3
:1013C000EC018881882351F001E09981911100E0BE
:1013D00097014D2D612F3BDF2196F3CFDF91CF9108
:1013E0001F910F91FF90EF90DF900895DF92EF92A1
:1013F000FF920F931F93CF93DF93E82EF62E8A016F
:10140000E901A9010E94C238DD24D394DE0CAE01AB
:101410006F2D8D2D0E94C238AE016F2D82E08E0D92
:101420000E94C23861E06F0DA8018D2DDF91CF9130
:101430001F910F91FF90EF90DF900C94C2381F9393
:10144000CF93DF93D82FC62F0E948138811117C008
:1014500011E01D0F6C2F812F0E94813881110FC068
:101460006C2F82E08D0F0E948138811108C061E0ED
:101470006C0F812FDF91CF911F910C94813881E007
:10148000DF91CF911F9108952F923F924F925F92DB
:101490006F927F928F929F92AF92BF92CF92DF9284
:1014A000EF92FF920F931F93CF93DF93CDB7DEB7E9
:1014B000CC54D1090FB6F894DEBF0FBECDBF2DD4EA
:1014C00061E08FE182DC7E0127E1E20EF11C88E021
:1014D000D7011D928A95E9F700E010E048E050E05E
:1014E000B8016A517F4FC7010E94E53A4F89588D74
:1014F000698D7A8D452B462B472B29F4BC8D2C9674
:10150000BFAF2C9709C008501109003BEFEF1E0731
:1015100029F72C961FAE2C970E94FA1D22968FAFAA
:1015200022970E942D1E2D968FAF2D9722966FAD7C
:101530002297CE01C996F2D522966FAD2297CE01A1
:10154000C696ECD51CA21BA21DA287E08EA318A2F2
:101550001F8E19A28AA319821A82FE0133968CE08B
:10156000DF011D928A95E9F710E0AE014A5C5F4FFA
:10157000612F80E00E94C238AE014A5C5F4F612F4C
:1015800089E00E94C2381F5F103179F71FEF18AB56
:1015900019AA1AAA1DA71EA71FA622966FAD2297E9
:1015A000CE01C096D2DC22966FAD2297CE018D96E9
:1015B000CCDC9E01235D3F4FAE01405D5F4F60E09C
:1015C00083E014DF1AA61BA61CA71FA318A619A642
:1015D00022966FAD2297CE018A96B7DC22966FAD28
:1015E0002297CE018796B1DC812C912C5401512C8D
:1015F00043E0442E2B961FAE2B9725961FAE2597C2
:10160000B1E0BDAF10E024961FAE249723961FAE25
:10161000239766246394772473942A961CAE1DAE98
:101620001EAE1FAE2A971E01EFE02E0E311C0E9447
:1016300076341F86188A198A9E012D5F3F4F7901E3
:10164000D70112968C91882321F0B101C7010E9425
:10165000CA38B3E0EB0EF11CE214F30489F71F5F04
:1016600026961FAF26972C96EFAD2C971E136CC1B4
:101670001F86188A198A9101A101652D842DB6DE75
:101680000E948639652D842DDADE811188C2259667
:10169000FFAD25972F2F30E08E010D5C1F4F44E6E4
:1016A000BE01675C7F4FCE01C69660DC25962FADEC
:1016B00025972F5F25962FAF2597243679F489AD8E
:1016C0009AADABAD8EAB9FABA8AF22966FAD229714
:1016D000CE01C99623D525961FAE259700E010E0D0
:1016E0003AE0E32EF12CE618F108802F071518F0E8
:1016F0000E151F0534F0AE014D5C5F4F6FE00E9488
:10170000C2380F5F1F4F0A30110579F70E94D73A90
:1017100060E870E00E94223A0D97E4F5EE24E3942D
:10172000E70C10E029E0C22ED12CC618D1088E2D6E
:1017300090E08C159D05E1F00FE03FEF3E0D3CAFD2
:10174000FF24F394FE0C602F8E2D0E9481388111AE
:101750000DC0602F8CAD0E948138811107C0602FB1
:101760008F2D0E948138882309F43AC2E394DFCF99
:10177000112381F00E94D73A612F70E00E94223A33
:10178000820D931DAE01495D5F4F6FE0DC018C91CE
:101790000E94C2389E01235D3F4FAE01405D5F4F06
:1017A000652D842D23DE8D8D2A962CAD3DAD4EAD5D
:1017B0005FAD2A97280F311D411D511D2A962CAF70
:1017C0003DAF4EAF5FAF2A9769017A0193E0F6947F
:1017D000E794D794C7949A95D1F78C149D04AE04DE
:1017E000BF0419F1C701B6010E94911D00E010E08D
:1017F00048E050E0B8016A517F4FCE0147960E9401
:10180000E53A8F89988DA98DBA8DC816D906EA0652
:10181000FB0628F03C8D26963FAF269706C0085061
:101820001109003B4FEF140719F723965FAD23977B
:10183000552341F0750EBB24B39410E023961FAEE0
:10184000239792C024968FAD2497882341F0680E89
:10185000BB24B39410E024961FAE249785C00E9449
:10186000D73A6E8D70E00E94223A8130910529F1BD
:101870001CF4892B41F075C082309105B1F10397BA
:1018800009F44CC06EC0862D90E0870D911D2B8D04
:1018900022952F7030E0821793076CF091E0691663
:1018A00009F45FC06A94BB24B39410E0A1E02396CE
:1018B000AFAF239759C0739454C0B1E0B71508F087
:1018C00050C07A94862D90E0870D911D2B8D2F703E
:1018D00030E0E1E02496EFAF2497821793070CF4F1
:1018E00040C024961FAE24973CC0862D90E0870D03
:1018F000911D2B8D22952F7030E08217930764F095
:10190000F1E07F1671F17A94BB24B39410E021E0EA
:1019100024962FAF249728C0639423C031E0361556
:1019200000F56A94862D90E0870D911D2B8D2F7008
:1019300030E041E023964FAF2397821793078CF056
:1019400023961FAE23970DC07501640126961FAD27
:1019500026972C965FAD2C9726965FAF2697B12CD5
:1019600003C0BB24B39410E01F86188A198A910122
:10197000A101652D842D3ADD21E02D964FAD2D97E7
:10198000BE01615E7F4FCE0183960E94691CA82E26
:1019900081FF05C086E0841560F001E005C082FF8C
:1019A00008C0442031F00FEF040D652D802F47DD76
:1019B0008111042DA0FE08C099E09515F0F0A1E07A
:1019C000A50DACAF6A2F08C0A3FE17C05520A9F023
:1019D000BFEFB50DBCAF6B2F802F31DD81110DC076
:1019E000041105C0ECADE51105C05CAE0BC0F1E023
:1019F000FDAF08C021E02DAF05C00415B1F35CAE0A
:101A000031E03DAF9E01235D3F4FAE01405D5F4F32
:101A10006CAD802FEBDC8981882311F081508983A4
:101A200084E015DAA82E85E012DAA11021C08981A0
:101A3000811133C08A81843081F1ACACA394A3942A
:101A400099249394900E6A2D892D0E9481388823C1
:101A500009F4D0C06A2D82E0800F0E948138811184
:101A60001CC06A2D802F0E948138811116C0C2C00F
:101A700041E0A41212C0813081F41CD3811107C04F
:101A8000C701B6010E94911D4601570188C0C701D8
:101A9000B6010E94911D51E05DAFB11025C02B969B
:101AA0008FAD2B978F5F2B968FAF2B978A3009F0D6
:101AB00067C080E090E0E1E0F0E0EC0FFD1FE80F90
:101AC000F91F2481222349F023812F5F23832031B2
:101AD00021F414822A8121502A8303968C309105A7
:101AE00051F72B961FAE2B978D8DDE0113964D016E
:101AF000B12C282F30E040E050E021962CAF3DAFD4
:101B00004EAF5FAF2197D40112968C918823D9F004
:101B1000C4010E9488388823B1F0F40112828A81BE
:101B200081508A83808161818F5F0E948138811119
:101B30000AC0D4018C9111966C9181500E94813819
:101B4000882309F46BC0B3E08B0E911C82149304BC
:101B5000D1F6BB2009F472C0C701B6010E94911DE5
:101B6000A701960183E0220F331F441F551F8A955A
:101B7000D1F72A962CAF3DAF4EAF5FAF2A975EC02C
:101B80003DAD31115BC01DAE2696FFAD26972C965C
:101B9000FFAF2C97460157015CAC402E48CD60E06A
:101BA0008FE113D943E0C501B401DED0C45BDF4F40
:101BB0000FB6F894DEBF0FBECDBFDF91CF911F915E
:101BC0000F91FF90EF90DF90CF90BF90AF909F90DC
:101BD0008F907F906F905F904F903F902F900895DF
:101BE00001500B3009F0AFCDF101E10FF11DE082A2
:101BF0001F5FBCCDFE0133968281811105C09082AA
:101C0000A18281E0828304C03396E215F305A1F737
:101C10008A818F5F8A838EE1898366CFC4010E94A7
:101C2000DC3821962CAD3DAD4EAD5FAD2197C20E97
:101C3000D31EE41EF51EBB24B39485CFAE014D5FC9
:101C40005F4F5A01D50112968C91882331F0BE0165
:101C5000665D7F4FC5010E94CA38B3E0AB0EB11C70
:101C6000A214B30479F70E94F4388DCF9F92AF92FB
:101C7000BF92CF92DF92EF92FF920F931F93CF9379
:101C8000DF9300D000D01F92CDB7DEB7B62E942ED2
:101C9000122F805295E0899FB001112462517F4F2D
:101CA00045E050E0CE0101960E94E53AC12CD12CCE
:101CB000A1E0B0E0AC0FBD1FAB0DB11D5D01D501C2
:101CC000EC91F0E00C2C02C0F595E7950A94E2F750
:101CD000E0FF0BC0802F8C0DA701911003C0682F6F
:101CE000812F01C0612F0E94C238BFEFCB1ADB0ADF
:101CF00088E0C816D10419F70F900F900F900F903D
:101D00000F90DF91CF911F910F91FF90EF90DF9097
:101D1000CF90BF90AF909F9008950E94E63860E00A
:101D200070E0CB010E94911D28EC30E044E062E0BD
:101D30008DE392E018DB88EE93E00E94D53728EC23
:101D400030E044E063E08BE392E00DDB88EE93E06B
:101D50000E94D53728EC30E044E062E089E392E06D
:101D600002DB0E94E63888C8CF92DF92EF92FF92A2
:101D70001F93CF93DF93CDB7DEB7A0970FB6F8943C
:101D8000DEBF0FBECDBF6B017C01142F0E94E63871
:101D90002AEF30E044E062E08EE292E0E4DA88EE9E
:101DA00093E00E94D537812F0E94841E6C157D051B
:101DB0008E059F0540F4B701A601812F0E94AE1E3B
:101DC0006DE172E002C065E172E0CE0101960E9411
:101DD000EE3A2AE0AE01475E5F4FC701B6010E94AE
:101DE000113BBE01675E7F4FCE0101960E94FC3A17
:101DF00028EC30E044E062E0CE010196D7DA0E94A0
:101E0000E6383AD8A0960FB6F894DEBF0FBECDBF25
:101E1000DF91CF911F91FF90EF90DF90CF900895C9
:101E20002F923F924F925F926F927F928F929F92EA
:101E3000AF92BF92CF92DF92EF92FF920F931F93D8
:101E4000CF93DF93CDB7DEB7A2970FB6F894DEBF7E
:101E50000FBECDBF0E94E6380FD80E94D73A6AE085
:101E600070E00E94223A8C0174E0000F111F7A95F5
:101E7000E1F70E94D73A69E070E00E94223AE8EF69
:101E80003E2E381A0E94FA1D89A385E0EAE1F1E0AE
:101E9000DE01559601900D928A95E1F73D8E68011D
:101EA000E12CF12CA12CB12C212C1E8EF9E08F2ECF
:101EB000912C030D111D37FC1A95003911055CF0AA
:101EC0000E94D73AB4010E94223A68EF362E381A9F
:101ED00000E910E00DC01016110654F00E94D73A28
:101EE000B4010E94223A58E0352E380E00E010E08E
:101EF0004D8DC40ED11C47FDDA9450EFC516D104A8
:101F000064F00E94D73AB4010E94223A98EF981BDD
:101F10009D8F40EFC42ED12C0CC01C141D044CF01E
:101F20000E94D73AB4010E94223A885F8D8FC12C5B
:101F3000D12C4E8D4F5F4E8FBE01665E7F4F842F3A
:101F40000E94730769A1CE014A960E94A507C801A5
:101F500024E0959587952A95E1F798A38F8F360110
:101F600034E0759467943A95E1F7AE01465E5F4FB1
:101F7000662D8F8D0E94C238C7018A199B09807F08
:101F8000892B71F1AE14BF0459F125019FEF491A55
:101F9000590AF501EF70FF2745E050E04C0F5D1F37
:101FA000E40FF51F8081E0E097012419350991E0E5
:101FB0009E0F4E145F0409F476C0F0E0E217F307B9
:101FC00008F071C0E40DF51DEF70FF2741E050E00F
:101FD0004C0F5D1FE40FF51F4481481362C052018E
:101FE000C7018A199B09807F892BA1F4F701EF7043
:101FF000FF2781E090E08C0F9D1FE80FF91F62948E
:1020000080EF68228F8D8F7086298483A7014F5FB0
:102010005F4F7A010E94F438239454E1251205C0E1
:10202000CE0145960E94CD1C0BC088E2281208C044
:1020300021E040E060E070E0CB010E94EA1C212C2E
:1020400083E00E94FD0681110AC082E00E94FD0625
:10205000811107C084E690E00E94D5372ACF81E045
:1020600001C080E08AA30E94E6380E943C078AA152
:10207000A2960FB6F894DEBF0FBECDBFDF91CF9111
:102080001F910F91FF90EF90DF90CF90BF90AF9096
:102090009F908F907F906F905F904F903F902F9088
:1020A0000895E92F84CF682F62956F708F700E941A
:1020B000D53895CF1F93CF93DF93CDB7DEB7C05EF2
:1020C000D1400FB6F894DEBF0FBECDBF0E94F138ED
:1020D00020EE31E0FC01DE01119601900D922150BD
:1020E0003040D9F79DDE182F882361F00E94F13827
:1020F00020EE31E0FE013196DC0101900D9221507D
:102100003040D9F7812FC052DE4F0FB6F894DEBFB2
:102110000FBECDBFDF91CF911F9108951F93CF9335
:10212000DF93EC01162F0E94D73A60E370E00E9423
:102130000E3ABC01660F771F680F791F615C7D4FF7
:1021400043E050E0CE010E94E53A612FCE01DF91DD
:10215000CF911F910C94A50784E98093BC008091D6
:10216000BC0084FDFCCF08958093BB0084E880937D
:10217000BC008091BC0087FFFCCF9091B900987F94
:1021800081E0983209F080E008951092BC0094EA52
:102190009093BC009091BC0097FFFCCF9091B90048
:1021A000987F983011F0903199F48093BB0084E8C7
:1021B0008093BC008091BC0087FFFCCF9091B90058
:1021C000987F81E0983119F0903411F402C008959D
:1021D00080E008950F931F93CF93DF931F92CDB7A5
:1021E000DEB70FEF060F482FFC0154EC1E2F141B17
:1021F0001017E9F05093BC002091BC0027FFFCCFE2
:102200003091B900232F287F307F303519F4309179
:10221000BB003083203549F0283521F49DDF81E073
:10222000810F1FC099DF812F1CC03196DFCF24E8BA
:102230002093BC002091BC0027FFFCCF1091B90077
:10224000107F103531F42091BB00FC01E00FF11D2F
:102250002083698381DF6981103511F4862F01C0E5
:10226000802F0F90DF91CF911F910F9108958CE0F7
:102270008093B8000895CF92DF92FF920F931F933F
:10228000CF93DF9300D0CDB7DEB7042F880F6983DB
:102290007A837BDF182F69817A81882381F0F62E7B
:1022A0006B018C2D8F19801749F0F60181916F0118
:1022B0005BDF8111F6CF50DF10E001C04DDF812FD1
:1022C0000F900F90DF91CF911F910F91FF90DF90B2
:1022D000CF900895EF92FF920F931F93CF93DF93C8
:1022E0001F92CDB7DEB77A01022F182F110F812F61
:1022F00069834BDF69818823A9F0862F35DF81113F
:1023000002C02ADF0FC0812F81603FDF8823C9F31D
:10231000602FC7010F90DF91CF911F910F91FF9018
:10232000EF9058CF80E00F90DF91CF911F910F91E8
:10233000FF90EF900895FC012281621778F43085B8
:10234000431760F470E0429F600D711D1124645FBB
:102350007F4F660F771F680F791F02C060E070E043
:10236000CB0108956F927F929F92AF92BF92CF92CE
:10237000DF92EF92FF920F931F93CF93DF931F9201
:10238000CDB7DEB76C01B62EA42E3901D9011C924F
:102390003FEF932E9B0C4A2D692DC6013983CBDF6D
:1023A00039810097C9F0FC01408142954F7021812D
:1023B00023702295207F242B79F48E159F0561F0E0
:1023C000D3018C9191E0980F9C93F801E80FF11DD7
:1023D000E80FF11D9082A1823E5F3330D1F62FEFDE
:1023E000922E9A0C492D6B2DC6012983A4DFFC0186
:1023F00029810097C1F0908192959F7081818370AF
:102400008295807F892B79F4EE15FF0561F0F30149
:10241000808191E0980F9083F801E80FF11DE80F9B
:10242000F11DB08291822E5F2330D1F60F90DF91A3
:10243000CF911F910F91FF90EF90DF90CF90BF90C1
:10244000AF909F907F906F900895FC0170E0428163
:10245000CB010197489F9001499F300D11242F5FB8
:102460003F4F8481281B3109E38141E050E0461B46
:10247000570BE49FC001E59F900D1124820F931F1D
:1024800008950F931F93CF93DF93FC0170E0615089
:1024900071098181869FE001879FD00D11242196CB
:1024A0008E01041B110910161106C4F441E050E01E
:1024B000421B51092081269FC001279F900D1124A6
:1024C000480F591F4017510708F48A01C8010E949C
:1024D0000E3A63838483C01BC58303C014821382B6
:1024E000C583DF91CF911F910F9108958F929F9295
:1024F000BF92CF92DF92EF92FF920F931F93CF93F1
:10250000DF93EC016B017A01B22EEE85F0E031979A
:102510002D818C81281B3F818E8190E0830F911D3E
:10252000BF010E94223A260F3B858A85381B4D85C4
:102530008C8590E0840F911DBF010E94223A360FD6
:102540003302C00111242202800D911D11240E942A
:10255000E137182F8A812885229F90011124A90133
:10256000889F400D511D1124CA010E94E137EC01E2
:102570004C019924982F181708F4912F891A910863
:10258000860194014C2F61E371E087E391E00E94A2
:10259000B6076B2DC6010E94A507870194014C2F39
:1025A0006EE271E084E391E00E94B6076B2DC701F3
:1025B000DF91CF911F910F91FF90EF90DF90CF901F
:1025C000BF909F908F900C94A5070F931F93CF936C
:1025D000DF93D901F801EA0129819C91261728F49B
:1025E00091609C938081826014C0621728F492608D
:1025F0009C93808181600DC0EA012881281728F40E
:1026000094609C938081886004C098609C938081D2
:1026100084608083DF91CF911F910F910895EF9295
:10262000FF920F931F93CF93DF93FC01161664F56F
:10263000F38010E0E480AE2DB0E0608170E06F19AF
:102640007109E80121976C9FC0016D9F900D7C9FDF
:10265000900D11248A1B9B0B50E04150510935818C
:102660008417950771F0321760F002501109A01716
:10267000B10719F0E394E4821CC0F394F38214824E
:1026800018C03F5F358315C0662399F085812817F0
:1026900070F09481992319F0915094830AC093812A
:1026A000992329F0915093830250048302C08150F2
:1026B0008583DF91CF911F910F91FF90EF90089547
:1026C0008A30910528F46031710510F40C94C238F9
:1026D0000895EF92FF920F931F93CF93DF93F82EFD
:1026E000E62E8A01E9010E94D73A80FF11C00E94BC
:1026F000D73A80FD02C0FA9401C0F12CF801F082B3
:102700000E94D73A6E2D70E00E94223A888310C052
:102710000E94D73A80FD02C0EA9401C0E12CE88211
:102720000E94D73A6F2D70E00E94223AF801808310
:10273000DF91CF911F910F91FF90EF9008952F920D
:102740003F924F925F926F927F928F929F92AF9241
:10275000BF92CF92DF92EF92FF920F931F93CF938E
:10276000DF93CDB7DEB72B970FB6F894DEBF0FBE61
:10277000CDBF6C019E01265F3F4FAE01455F5F4FAD
:10278000FC0160858281A5DFFA84EB844F2D6E2DDC
:10279000C601D1DD3C01F601E482F286412C512CC8
:1027A000A12CB12C2A843B84422D632DC601C3DDAC
:1027B0004C0173018E010F5F1F4F9E01275F3F4F3A
:1027C000422D632DC601CEDD8985811129C0F4011A
:1027D000908192959F70818183708295807F892BF3
:1027E00009F458C04A145B0430F48B85F6018383E6
:1027F0008A8581872501F401908192959F702181BE
:10280000822F83708295807F892B81508B87822FC6
:102810008695869581508A87F1E0AF1AB108C2CFBC
:102820000E94D73A698570E00E94223A7C01EE0C42
:10283000FF1C81E090E08C0F9D1FE80EF91EF70150
:1028400041816081C60177DDFC019B859F5F292F57
:102850002295207F80818F70822B80839295937048
:1028600081818C7F892B81836A8591E0960F990FF6
:10287000990F8370892B81838F019401A7018B8528
:10288000A4DEF70180818B8781818A87FFEFAF1AF1
:10289000BF0A88CF2B960FB6F894DEBF0FBECDBF10
:1028A000DF91CF911F910F91FF90EF90DF90CF902C
:1028B000BF90AF909F908F907F906F905F904F9060
:1028C0003F902F900895CF93DF93EC010E94D73A69
:1028D0002A81988580FF05C01B82198621502C8390
:1028E00004C021502B8319861C8291509A870E9424
:1028F000D73A80FF08C08B819C819B838C8389851C
:102900009A8599878A87DF91CF9108952F923F9278
:102910004F925F926F927F928F929F92AF92BF92EF
:10292000CF92DF92EF92FF920F931F93CF93DF939B
:10293000CDB7DEB763970FB6F894DEBF0FBECDBF3D
:102940004C015B013A01522E198B088BFB8AEA8AF3
:10295000DC016C916A3108F4A5C111E069E170E015
:10296000660F771F660F771F61537D4F44E050E07D
:10297000CE0109960E94E53A112369F10E94D73AE7
:1029800064E070E00E94223A880F880F880F9C85CF
:102990009770982B9C870E94D73A63E070E00E9462
:1029A000223A8295880F880F807C9B859F73982B95
:1029B0009B87F4018081869586958695893110F4F0
:1029C000982F01C099E18B85F82FF91B9F2F9F73DA
:1029D000807C892B8B878B858295869586958370E5
:1029E0008D5FD5011E968C931E978A85982F9295A0
:1029F0009F70F30190839985292F2295269526951E
:102A000023708F70880F880F822B9F7312969C9370
:102A1000129718968C9318971D921C9282E999E050
:102A2000F5017896DF019C011D9221503040E1F7BD
:102A30008C85877090E08130910549F08230910556
:102A400049F0892B09F05DC0C50179DE5AC0C50186
:102A500076DE55C09E01225F3F4FAE01415F5F4F62
:102A6000D50118966C91189712968C9132DE4E858E
:102A70006F85C50160DCFC01D5018D919C9111979A
:102A800001968D939C9380818F708061808381817A
:102A90008C7F8183F50180819181892B81F10E9456
:102AA000D73AD5016D917C910E940E3A8C011F8618
:102AB000F501F2807F847F1411F11E86D5011896EE
:102AC000EC906E846E14C1F0462D672DC50133DC89
:102AD000FC01208122952F70818183708295807FF7
:102AE000822B813031F40115110509F4DEC001504B
:102AF000110963946E86E5CF73947F86DBCFC501A1
:102B0000E2DE8C85982F987F09F049C0652DC501BC
:102B10000F9604DB652DC501429600DB652DC501CE
:102B20004596FCDA6B856F73BAE06B9FB001112498
:102B3000E889F98971836083882777FD8095982FCC
:102B4000F0D77501F2E0EF0EF11C2AE044E0D50168
:102B50001E966C91C70195DC8501085F1F4F20E12F
:102B600047E0F5016685C8018CDCD5011E966C91A5
:102B7000C7016BDCEA89FB8991838083D5011E96AE
:102B80006C91C80162DCF60191838083D4018C9141
:102B90008F3F09F4D8C08F5FD4018C93D4C0869541
:102BA00086958695880F880F11E0282E312C212FCD
:102BB00030E0F501828190E001972817390709F488
:102BC000A5CF442443940FEF010F66246394610E54
:102BD000242D30E0D50118968C9190E001972817AC
:102BE000390709F45DC00E94D73A60E870E00E949E
:102BF000223A77247394740C821593050CF04EC01E
:102C00000E94D73A64E070E00E94223AEE24E394F6
:102C1000F12C02C0EE0CFF1C8A95E2F7442D612FC7
:102C2000C50189DBFC012081322F3E293F70207FC6
:102C3000232B2083FF24F2E0EF16F104E9F064F483
:102C4000EA94EF2859F54FEF440D612FC50173DB6E
:102C5000FC012081226021C084E0E816F104A1F08B
:102C600098E0E916F104D1F4442D662DC50163DB2B
:102C7000FC012081246011C0472D612FC5015BDB61
:102C8000DC012C91216007C0442D602FC50153DB6E
:102C9000DC012C9128602C9301C02083472C98CF15
:102CA0001F5F85CF70E010E05BCEE12CF12C8E0130
:102CB0000F5F1F4F9E01235F3F4F462D672DC501BC
:102CC00051DB4E856F85C50136DB7C018D85811119
:102CD0000EC0D5018D919C91119701978D939C9376
:102CE000F7018081806F808381818360D2CE0E94D2
:102CF000D73A6D8570E00E94223A3C01660C771C41
:102D000021E030E02C0F3D1F620E731ED30111969F
:102D10004C9111976C91C5010EDBFC01D5018D9191
:102D20009C91119701968D939C9380818F70806107
:102D3000808381818C7F81838F019701A3016E85C0
:102D40008F8543DCA7CE63960FB6F894DEBF0FBE27
:102D5000CDBFDF91CF911F910F91FF90EF90DF904A
:102D6000CF90BF90AF909F908F907F906F905F902B
:102D70004F903F902F9008952F923F924F925F92E5
:102D80006F927F928F929F92AF92BF92CF92DF927B
:102D9000EF92FF920F931F93CF93DF93CDB7DEB7E0
:102DA000CB5DD9400FB6F894DEBF0FBECDBF22D7A2
:102DB000C053D64F8883C05DD940C753D64F1882C1
:102DC000C95CD940C853D64F1882C85CD940CA5391
:102DD000D64F19821882C65CD9409E012C53364FBB
:102DE000C653D64F39832883CA5CD940CC53D64FBB
:102DF00019821882C45CD9403E013EE3631A36EF63
:102E0000730AF3011182108263019E012C53364F25
:102E100079018E010A53164F282FAE014853564FA1
:102E2000BE016F5F7F4FCE018753964F6FDDCA5350
:102E3000D64F48805980C65CD94000511109F8012D
:102E400010821182128209D7C952D64F8883C75D7A
:102E5000D9407E01F1E5EF1AF6EFFF0AF701118282
:102E60001082128289E083836E01F5E5CF1AF6EFB6
:102E7000DF0AF6011182108212828383C053D64F7B
:102E80002881C05DD940AE014454564FBE01615403
:102E9000764FCE0101962ADBF1E0C153D64FF8837D
:102EA000CF5CD940212C23E0C353D64F2883CD5C7F
:102EB000D940C253D64F1882CE5CD9403FE8C453A4
:102EC000D64F3883CC5CD94033243394812C912C59
:102ED0005401C852D64FC882C85DD940C752D64F98
:102EE000D882C95DD940C652D64FE882CA5DD94062
:102EF000C552D64FF882CB5DD940CB52D64F08830E
:102F0000C55DD940CA52D64F1883C65DD9400E94CC
:102F1000763420E0C952D64F4881C75DD940C852A7
:102F2000D64F6881C85DD940C752D64F7881C95DF8
:102F3000D940C652D64F8881CA5DD940C552D64FB6
:102F40009881CB5DD940C5D481FD05C082FB112796
:102F500010F9119501C011E080FD05C083FBFF242D
:102F6000F0F8F19402C0FF24F39484E00E94270754
:102F7000813081F485E00E942707813059F40E9456
:102F8000100F882309F45AC2B20180E090E0C9D53D
:102F900033243394C453D64F8881CC5CD9408150BC
:102FA000C453D64F8883CC5CD940811113C091E0C3
:102FB000491A51084114510409F44AC2B20180E08F
:102FC00090E0AFD5EFE8C453D64FE883CC5CD9404E
:102FD00033243394111103C0FF2009F4C4C0CE532D
:102FE000D64F68817981C25CD940CB52D64F488197
:102FF000C55DD940CA52D64F5881C65DD940CC5321
:10300000D64F88819981C45CD9405ADBFF2009F4EE
:1030100019C26E856F0D88850E948138811112C298
:103020000F8527E040E16F2DCE010996F8DA01E027
:10303000112309F409C288856E85810F0E948138A9
:10304000811102C20F8524E04AE0612FCE01039670
:10305000E6DAFF846F2DCE010396F7D98C01CC53AD
:10306000D64F99838883C45CD9406F2DCE010996D1
:10307000ECD9CE53D64F99838883C25CD94028853A
:1030800030E002171307B9F52E8530E08217930759
:1030900091F5C853D64F2881C85CD940249DC00102
:1030A000259D900D1124880E991EA11CB11C9E0116
:1030B0002E53364F6901CE018C53964F7C018E0101
:1030C0000A53164FC053D64F2881C05DD940AE0178
:1030D0004853564FBE016F5F7F4F059617DCCA53AA
:1030E000D64F48805980C65CD9409FE8C453D64F1C
:1030F0009883CC5CD940C053D64F2881C05DD9405D
:10310000AE014454564FBE016154764FCE01019634
:10311000EDD9E3E0C353D64FE883CD5CD9403324E7
:103120003394C153D64FF881CF5CD940FF2321F0AF
:10313000AE014A5E5F4F0AC0CB52D64F4881C55D93
:10314000D940CA52D64F5881C65DD940CE53D64FCA
:1031500068817981C25CD940CC53D64F88819981EE
:10316000C45CD940ADDAC253D64F2881CE5CD94079
:103170002F5FC253D64F2883CE5CD940253199F4B6
:1031800081E0C153D64F3881CF5CD9403827C15335
:10319000D64F3883CF5CD940C253D64F1882CE5C0D
:1031A000D94033243394C353D64F8881CD5CD94062
:1031B0008F5FC353D64F8883CD5CD9408430A1F450
:1031C000222D30E08E010754164F4AE0BE016454B0
:1031D000764FCE018154964F0E94B607239494E116
:1031E000291206C0212C04C0311007C0312C8FCE0B
:1031F000C353D64F1882CD5CD9400E94E638CA53DB
:10320000D64F48815981C65CD9409A0124193509A5
:103210003695279536952795569547955695479512
:103220008E010D54164FBE016D5E7F4FCE0140964C
:103230000E94B6072F8530E02150310989E090E0E7
:10324000B9010E94223A41E0460F8FE090E0B901B7
:103250000E94223A6F5FE12C242F30E02F5F3F4F16
:10326000CF52D64F39832883C15DD940262F30E015
:103270002F5F3F4FCD52D64F39832883C35DD9404E
:103280008E2D90E0CF52D64F28813981C15DD94033
:103290008217930709F4A6C0F12C8F2D90E0CD5230
:1032A000D64F28813981C35DD9408217930709F42D
:1032B00097C04C854F0D6E816E0DCE0101963BD8A7
:1032C0006C01009709F48AC00F8510E001501109C4
:1032D000E09E102D11248F81181BF09E002D1124CB
:1032E0008D85081B312E612E772467FC7094232D69
:1032F000332727FD30956F85C301860F911D281751
:10330000390769F1311621F001972817390771F44F
:10331000AE014D54564F602F832D0E94C2386F85E9
:103320006150600FAE014D54564F14C0F6018081BC
:1033300081FD08C06150600FAE014D54564F832D82
:103340000E94C238F601808180FD07C0AE014D5455
:10335000564F602F832D0E94C2383394C8CF302E31
:10336000602E772467FC7094432D552747FD5095B8
:103370008F859301280F311D4217530779F13016BD
:1033800029F0215031094217530779F4AE014D5409
:10339000564F632D812F0E94C2388F858150AE0118
:1033A0004D54564F632D810F15C0F601908193FD4A
:1033B00008C08150AE014D54564F632D810F0E94BD
:1033C000C238F601808182FD07C0AE014D54564FD0
:1033D000632D812F0E94C2383394C6CFF3945DCF02
:1033E000E3944ECFAE014754564F6E8588850E94B8
:1033F000C238C153D64F3881CF5CD94031110BC090
:10340000CB52D64F4881C55DD940CA52D64F58815C
:10341000C65DD94003C0AE014A5E5F4FCE53D64F62
:1034200068817981C25CD940CC53D64F888199811B
:10343000C45CD94045D90E94F438D8CEC501B40146
:1034400070D306C000E0F4CD002309F46ACE01CEAB
:10345000C501B401C552D64F0FB6F894DEBF0FBEFA
:10346000CDBFDF91CF911F910F91FF90EF90DF9033
:10347000CF90BF90AF909F908F907F906F905F9014
:103480004F903F902F900895CF92DF92EF92FF924E
:103490000E948D0E61E08CE30E94E5066DDC6B01FD
:1034A0007C0160E08CE30E94E5066CD244E0C70139
:1034B000B601FF90EF90DF90CF900C94B40E109275
:1034C00052016091160185E00E944E0760934F0102
:1034D000709350018093510108951F93CF93DF9310
:1034E00000D01F92CDB7DEB766E081E00E94A73919
:1034F00011E080914D0191E0980F90934D01BE0134
:103500006F5F7F4F0E94730760911601CE01019695
:103510000E94A507AE014F5F5F4F612F89E00E94B7
:10352000C2381F5F173029F70F900F900F90DF916F
:10353000CF911F910895EF92FF920F93CF93C82FD1
:10354000662329F00E94E63810925301B8DF6FE03D
:1035500087E00E94D539EC2FF0E0EE0FFF1FEE5B05
:10356000FC4F8591949120915301FC01E20FF11DD4
:10357000C491CC2381F080915201853060F464E0E5
:10358000681B8FE4E82E81E0F82E07E020E040E0A1
:103590008C2F0E94360E81E080934E019091520153
:1035A0009F5F90935201973050F089DFCC2321F038
:1035B000809153018F5F01C080E080935301CF91D0
:1035C0000F91FF90EF900895EF920F93CF93C82F34
:1035D0002091160186E9289F90011124E32E00E036
:1035E00020E041E062E08BE393E00E944C06CC23B4
:1035F00071F08091160128EC829FC0011124E12C0A
:10360000292F42E063E087E393E00E944C06CF91CC
:103610000F91EF900895CF93DF931F92CDB7DEB750
:10362000462F853028F469836FD320E0498104C098
:1036300021E060E070E0CB010F90DF91CF91CAC133
:103640001F93CF93DF931F92CDB7DEB789830E947C
:103650003C0798D18981813049F028F08230B1F45B
:10366000809154010EC0809155010BC060911601EC
:1036700070E080E090E055D21AE02FDF1150E9F7BA
:1036800005C00F90DF91CF911F919ECF0F90DF91DA
:10369000CF911F9108950F931F93CF93DF931092B3
:1036A0005301109254010BDF61E083E00E94E506B4
:1036B00080E0C6DF10E0C0E0D0E001E082E00E94E0
:1036C000FD06811177C00E94763484E00E94FD06D9
:1036D000882341F0C23009F44CC0D1E0DC0F61E036
:1036E00089E00BC085E00E94FD06882361F0CC23B1
:1036F00089F0DFEFDC0F61E087E08C0F1CDF8D2F9E
:103700009FDFCD2FD0E0C13089F020F0C23009F02A
:103710003FC02FC083E00E94FD068823B1F1809155
:1037200055018027809355014FDF2FC080E00E9414
:10373000FD06882331F060911601683C90F46F5FBC
:103740000AC081E00E94FD06882359F060911601AD
:10375000603138F061506093160170E080E090E0D5
:10376000E0D11F5F1530A1F4B8DE00934E0110E0E8
:103770000FC083E00E94FD06882349F08091540128
:1037800080278093540120DF02C0C0E001C0C2E066
:10379000DF5FD93029F460E088E08C0FCCDED0E028
:1037A00080914E01882309F489CF10924E010E9426
:1037B000F43884CF0E94E6380E94F43860E083E059
:1037C0000E94E5068091550162D28091160131D2A6
:1037D000809155010E94D70580915401882329F0DA
:1037E000DF91CF911F910F9186C2DF91CF911F91F1
:1037F0000F910895EF92FF920F931F93CF93DF9352
:10380000F9D18093160129D280935501109253016A
:1038100056DE80E079D220E041E0DCD00E94D73A49
:10382000EC01F12CE12C10E001E083E00E94FD06A8
:1038300081113FC00E94763484E00E94FD068823F7
:1038400039F0CE010E94DA3A1730A1F01F5F0BC0A9
:1038500085E00E94FD06882369F0CE010E94DA3AD5
:10386000112341F0115061E0812F65DE602F812F1F
:10387000D2DEF12CE39489E1E81208C0602F812F99
:10388000CADE000FE12C003209F401E0F39489E074
:10389000F81204C060E0812F4EDEF12C2196809159
:1038A0004E01882309F4C1CF10924E010E94F438D2
:1038B000BCCF0E94E6380E94F43864D0CE010E944A
:1038C000DA3A812FDF91CF911F910F91FF90EF9006
:1038D00008950F931F93CF93DF93EB01022F44239F
:1038E000C9F0009749F060E00E94E204882331F0BB
:1038F000813011F414E003C010E001C012E0209701
:1039000089F161E0CE010E94E204882351F1813007
:1039100049F521C0892B11F410E00DC082E00E940E
:10392000FD06811107C083E00E94FD068823A1F3F4
:1039300014E001C012E0CD2BA9F0013039F480E091
:103940000E94FD06811107C081E008C084E00E944A
:10395000FD06882311F0116005C085E00E94FD0678
:1039600081111860812FDF91CF911F910F910895E0
:1039700081B1876081B90895E82FF0E0E454FC4FED
:103980008491089595E088E0109A10988150E1F7AD
:103990009150C9F7119A11980895FC01359665E088
:1039A000829120E030E090E0AC01022E02C05595FB
:1039B00047950A94E2F740FD129A109A10981298CF
:1039C0002F5F3F4F2830310579F7615049F7119A41
:1039D000119808953F924F925F926F927F928F92CB
:1039E0009F92AF92BF92CF92DF92EF92FF920F938E
:1039F0001F93CF93DF93CDB7DEB729970FB6F89417
:103A0000DEBF0FBECDBF6B017C01342E8E010F5F78
:103A10001F4F85E0D8011D928A95E9F721110AC050
:103A20005801912C95E0892E2AE0422E512C612CD0
:103A3000712C0DC0C114D104E104F10489F7812C6B
:103A40002CC0911022C09394E5E09E1631F1C7017D
:103A5000B601A30192010E94353A6E837F83888765
:103A60009987EE81FF81E454FC4FE491D501ED93F9
:103A70005D01C701B601A30192010E94353A6901B7
:103A80007A018E81811106C0DCCFB5E08B12DBCFCD
:103A9000892CD9CF85E0882ED6CFF80180E090E040
:103AA000432D50E0282F6191881508F060E0DA017D
:103AB00002C0B595A7952A95E2F7A0FD626020E0C7
:103AC00030E070E0DB01022E02C0B595A7950A94A4
:103AD000E2F7A0FD129A109A109812982F5F3F4FAC
:103AE0002830310579F7019685309105D9F6119A7C
:103AF000119829960FB6F894DEBF0FBECDBFDF91A7
:103B0000CF911F910F91FF90EF90DF90CF90BF90DA
:103B1000AF909F908F907F906F905F904F903F906D
:103B2000089520E040E056CFCF93DF931F92CDB7AA
:103B3000DEB782B1806F82B98FEF85B98BB980B75C
:103B4000806880BF80916400816080936400809170
:103B500064008260809364000BDF0E94063812DFED
:103B60000E9465340E944A0778942FEF83EC99E015
:103B7000215080409040E1F700C000000E943711C2
:103B80000E94F305882311F068D003C080E07FD045
:103B900080E00E94D70580E00E94FA050E9405049B
:103BA0000E94E6380E94F438FCD00E943C0722DED6
:103BB00089830E943C078981E82FF0E0E830F10515
:103BC000B0F7E25CFF4F0C94733A65DDF0CF40D262
:103BD000EECF0E942B2FEBCF0E943231E8CF0E9414
:103BE000440AE5CF51DCE3CF0E94E734E0CF0E94E6
:103BF0006108DDCFCF93DF9300D0CDB7DEB742E0D1
:103C000050E06BE170E0CE0101960E94593B998132
:103C10008A81891306C0893C30F48F3028F48FE004
:103C200003C089E101C088EC0F900F90DF91CF9124
:103C30000895CF93DF9300D0CDB7DEB789838A8311
:103C400042E050E06BE170E0CE0101960E94693BDA
:103C50000F900F90DF91CF910895CF93DF9300D015
:103C6000CDB7DEB742E050E069E170E0CE010196E9
:103C70000E94593B89819A81981303C081E0911178
:103C800001C080E00F900F90DF91CF910895CF9306
:103C9000DF9300D0CDB7DEB789838A8342E050E05E
:103CA00069E170E0CE0101960E94693B0F900F9090
:103CB000DF91CF910895CF93DF9300D000D01F9272
:103CC000CDB7DEB719821A821B821C821D8295E055
:103CD000899FB00111246050704045E050E0CE0152
:103CE00001960E94693B0F900F900F900F900F90DC
:103CF000DF91CF910895CF93C0E08C2FDCDFCF5FB1
:103D0000C530D9F7CF910895CF93DF9300D000D07D
:103D10001F92CDB7DEB725E0829FB001112460501D
:103D2000704045E050E0CE0101960E94593B698108
:103D30007A818B819C81603A26E8720721E08207B4
:103D4000910520F06FE976E881E090E00F900F9008
:103D50000F900F900F90DF91CF910895CF93DF9345
:103D600000D000D01F92CDB7DEB749835A836B8352
:103D70007C83560F540F570F5D8395E0899FB001E8
:103D800011246050704045E050E0CE0101960E9441
:103D9000693B0F900F900F900F900F90DF91CF9194
:103DA000089584E00E94FD06882361F085E00E946A
:103DB000FD06882339F089E13CDF80E068DF80E0A0
:103DC0000C94D70508957F928F929F92AF92BF92E5
:103DD000CF92DF92EF92FF920F931F93CF93DF93D7
:103DE00000D000D000D0CDB7DEB76B017C01742EBF
:103DF0004901A12CB12C46E050E0B501625F7B4F38
:103E0000CE0101960E94E53A89819A81AB81BC81FD
:103E1000C816D906EA06FB0658F08E81F4018083A5
:103E20008D81F8018083772059F08E5F808308C0F0
:103E3000F6E0AF1AB10882EBA8168FEFB806D9F6F4
:103E400026960FB6F894DEBF0FBECDBFDF91CF919F
:103E50001F910F91FF90EF90DF90CF90BF90AF90A8
:103E60009F908F907F900895FF920F931F93CF9311
:103E7000DF938C01F62EEA010E94D73A6AE070E0E7
:103E80000E94223A88830E94D73A60E170E00E9443
:103E9000223A8983CE010E948838882369F088817C
:103EA0008F5F88838A30B1F7188289818F5F898319
:103EB000803181F71982EECF6F2DC8010E948E10DC
:103EC00081E0DF91CF911F910F91FF900895DC0168
:103ED0002D913C9111971296ED91FC9113972E170D
:103EE0003F0729F0E21BF30B4E175F0710F080E04D
:103EF0000895240F351FFC01E20FF11D8481FB01A1
:103F0000808381E008953F924F925F926F927F92FB
:103F10008F929F92AF92BF92CF92DF92EF92FF92D9
:103F20000F931F93CF93DF9300D000D01F92CDB794
:103F3000DEB77C012B013A0169011D821C82FC0164
:103F40008281938120813181821B930B803118F40F
:103F500030E1332E01C0382EA32CB12CAA0CBB1C8F
:103F60004C019924F1E08F1A9108A401BE016B5F06
:103F70007F4FC701ACDFF60180819181B5010E94BE
:103F80000E3A8E010F5F1F4F9C01432DB301C201FA
:103F90000E94B6078D81682F62956F70A8018F709F
:103FA0000E94C23840E050E0BE016B5F7F4FC70106
:103FB0008EDF712C472D50E04815590529F14F5FD0
:103FC0005F4FBE016C5F7F4FC70181DF8C81682F1F
:103FD00062956F708E010D5F1F4F9E012E5F3F4FE8
:103FE000AE014F5F5F4F8F700E94A3388D81682FA5
:103FF00062956F70AE014F5F5F4F8F700E94C23845
:104000008C818D837394D6CFF60180819181019646
:104010008A159B0518F49183808303C0F6011182F1
:1040200010820F900F900F900F900F90DF91CF9113
:104030001F910F91FF90EF90DF90CF90BF90AF90C6
:104040009F908F907F906F905F904F903F900895DA
:104050004F925F926F927F928F929F92AF92BF9298
:10406000CF92DF92EF92FF920F931F93CF93DF9344
:10407000CDB7DEB7C451D1400FB6F894DEBF0FBE46
:10408000CDBF0E948D0E1A8219821C821B820E9453
:10409000D73A64E070E00E94223AA82EB82E81E060
:1040A0008A15F0F483E08A15B0F10E94D73A66E0F1
:1040B00070E00E94223A8F5FC85FDE4F8883C8504D
:1040C000D1400E94D73A60E170E00E94223ACB5F73
:1040D000DE4F8883C550D140FE01E85FFE4F1DC012
:1040E0000E94D73A6CE070E00E94223A8F5FCB5F6B
:1040F000DE4F8883C550D1400E94D73A6AE070E015
:104100000E94223AC85FDE4F8883C850D140FE012A
:10411000EB5FFE4F02C0E0E0F0E08A2D8D7F813042
:1041200029F480818D5F80837FEF01C071E063E0BF
:10413000CB5FDE4F0881C550D140C85FDE4F18818C
:10414000C850D1402B813C8189819A81A901481BAB
:10415000590B4427452B91F4C90101969C838B830D
:10416000A1E0B0E0AC0FBD1FA20FB11D902F929542
:10417000907F812F8F70892B14968C938081870F6D
:1041800080836150A9F669DD682E8E010D5E1E4F99
:104190009E012C5E3E4F482F60E070E0CB0113DEA5
:1041A000C05FDE4F1882C051D140CF5EDE4F188213
:1041B000C151D1401FDD882E682FCE01885F9E4FF0
:1041C0000E948E10682DCE01855F9E4F0E948E103A
:1041D000C25FDE4F19821882CE50D1400B81898197
:1041E000081B10E0101771F09E01225F3E4FAE01D8
:1041F000485F5E4FBE01655F7E4FCE01019683DE54
:104200001F5FF0CF2B813C8149815A81241B350BE4
:10421000203A310540F4AE01405F5E4F682DCE017B
:104220008B5F9E4F21DE9AE0592EC12CD12C760156
:1042300024E0922E3EE0732E10E00E947634662039
:1042400099F00E9462048230C9F020F48130D1F4E8
:10425000A12C18C0843029F08830A1F4AA24A3949A
:1042600011C083E0A82E0EC000E0802F0E94FD0642
:10427000811107C00F5F0430C1F704C002E0A02E17
:1042800001C0A02E84E00E940E07882341F085E043
:104290000E940E07811148C102C0B4E09B2E1F5F2F
:1042A000CC5EDE4F8881C451D1401813ECC0AB14F2
:1042B00049F182E0A81206C083E0B812CBC1A3E0A6
:1042C000AA2E20C083E0A81206C082E0B81681F0B2
:1042D000F3E0BF2E17C081E0A11004C0B81659F05A
:1042E000B12C10C0A8120AC0B1100AC0A12C0AC07B
:1042F000E2E0AE2E07C0AA24A39404C0BA2C02C0E8
:10430000BB24B3944B815C814150510989819A81CE
:10431000481B590BBE016E5E7E4FCE010196D7DD64
:10432000882351F0CE5EDE4F0881C251D140102F5C
:104330001F7002950F7002C000E010E081E0B81617
:10434000C1F0B81688F082E0B81621F083E0B81604
:1043500031F0CDC0193008F0CAC01F5F0EC0112364
:1043600009F4C5C0115009C00F3009F4C0C00F5F77
:1043700004C0002309F4BBC00150C05FDE4F888138
:10438000C051D1401813ECC044244394CF5EDE4F9B
:104390008881C151D1400813E3C0602F812F0E9452
:1043A0006638882309F411C1442009F4A0C02B8188
:1043B0003C8189819A81A901481B590B4427452BCF
:1043C00079F4C90101969C838B83E1E0F0E0EC0F66
:1043D000FD1FE20FF11D0295007F1F70102B14834B
:1043E000442009F4EDC08FE9C81686E8D80681E0BC
:1043F000E806F10408F4B6C0C85FDE4F9881C850E3
:10440000D140CB5FDE4F8881C550D1409813F9C0B1
:10441000C75FDE4F9881C950D140CA5FDE4F8881A7
:10442000C650D1409813EDC0C65FDE4F9881CA5088
:10443000D140C95FDE4F8881C750D1409813E1C099
:104440009E01225F3E4FAE01485F5E4FBE01655F39
:104450007E4FCE01019657DD8B819C8129813A8167
:10446000821B930B803A910508F041C0AE01405F7A
:104470005E4F682DCE018B5F9E4FF6DC8823B9F12D
:104480006AE0562E10E0939485E0981210C09E01C9
:10449000225F3E4FAE01485F5E4FBE01655F7E4FBB
:1044A000CE01019630DD0E94F438912CC6CE739473
:1044B0008FE07812C2CECE01805F9E4F0E94883876
:1044C000882331F0CE01805F9E4F0E94DC3808C007
:1044D000BE016B5F7E4FCE01805F9E4F0E94CA3847
:1044E0000E94F438712CA9CEC701B6011ADB40E056
:1044F000C701B6010E94B40ECC5EDE4F0FB6F89431
:10450000DEBF0FBECDBFDF91CF911F910F91FF9006
:10451000EF90DF90CF90BF90AF909F908F907F9063
:104520006F905F904F9008950E94100F8823E1F2E2
:10453000C701B601F6DA9B808981981A00E0091557
:1045400009F4ABCE9E01225F3E4FAE01485F5E4F45
:10455000BE01655F7E4FCE010196D5DC0F5FEFCFC8
:10456000412C1BCFCD5EDE4F8881C351D140052D3C
:1045700010E0080F111D222717FD2095322FC00EC5
:10458000D11EE21EF31E80EAC81686E8D80681E036
:10459000E806F10438F07FE9C72E76E8D72EEE243E
:1045A000E394F12CC701B601BCDA8E010D5E1E4FFB
:1045B0009E012C5E3E4F462DC701B60104DC1CCF88
:1045C00051105A9454E0952E5DCF4110F0CE2981C0
:1045D0003A818B819C812817390709F4E8CEC901FB
:1045E00001969A838983E1E0F0E0EC0FFD1FE20F72
:1045F000F11D8481682F62956F708F700E94D5388D
:10460000D6CEC85FDE4F88819981AA81C850D1403B
:10461000C55FDE4F88839983AA83CB50D140CB5F9F
:10462000DE4F88819981AA81C550D140C85FDE4F95
:1046300088839983AA83C850D1408B819C8129812A
:104640003A81821B930BC25FDE4F99838883CE50E1
:10465000D140F6CE42E0B42E55CEFA019181983089
:1046600048F5E0E0F0E020E0DA01AE0FBF1F14965D
:104670003C91332329F02F5F33962830A9F72FEF91
:1046800030E0D9011196FD01EE0FFF1FEA0FFB1F6D
:10469000E40FF51F6083F901EE0FFF1FE20FF31F18
:1046A000E40FF51F828381E084839F5FFA01918389
:1046B000983009F480E008957F928F929F92AF9294
:1046C000BF92CF92DF92EF92FF920F931F93CF93FF
:1046D000DF93FC01962E842E722E81818295869521
:1046E000869583709281292F2370D22EDD0CDD0CEC
:1046F000D82A1081812F8370C82ECD0CC394B92E77
:10470000B694B6941695169513701B0D1F5FE12C89
:10471000F12CAD2CAE0CAC1491F0C0E0D0E06C2FBD
:104720006B0D611741F0072D282D492D8A2D0E9410
:104730008C382196F4CF2FEFE21AF20AEACFDF91FC
:10474000CF911F910F91FF90EF90DF90CF90BF908E
:10475000AF909F908F907F900895CF92DF92EF92CD
:104760000F93CF93DF93EC016B01CA010E94D53701
:104770008D85FE01E80FF11DE80FF11DD60112969F
:10478000EC90129711960C9111972C9148896F8596
:10479000878190850E944C06DF91CF910F91EF9019
:1047A000DF90CF900C94F438BF92CF92DF92EF92CB
:1047B000FF920F931F93CF93DF9300D01F92CDB73B
:1047C000DEB76C01CB01BA017901B02EF90120816D
:1047D00030E08E010F5F1F4F48E00E94B607F701DF
:1047E00080818F5F803111F0808302C0F7011082D9
:1047F0006B2DCE0101960E94A507E12CF12CF6014C
:10480000EE0DFF1D8281882331F0BE016F5F7F4F67
:10481000CF010E94CA38F3E0EF0EF11C88E1E816E0
:10482000F10469F70F900F900F90DF91CF911F91D6
:104830000F91FF90EF90DF90CF90BF900895BF92BF
:10484000CF92DF92EF92FF920F931F93CF93DF935C
:1048500000D000D01F92CDB7DEB7C82ED62EB22E14
:104860001D821C8204E114E0E42EF12C42E050E0B1
:10487000B801CE0104960E94E53A4C814F7050E099
:104880004E155F0514F410E007C00E5F1F4F84E063
:104890000E31180759F7F7CF60E0812F8C0D0E9479
:1048A000D5381F5F1330C1F79C8192959F7081E1CD
:1048B000989F902D112499839D81292F2F70289FD7
:1048C000202D11242A8392959F70989F802D11246A
:1048D0008B836B2DCE0101960E94A50710E0AE01DF
:1048E0004F5F5F4F60E0812F8D0D0E94C2381F5FC8
:1048F0001330A9F70F900F900F900F900F90DF914A
:10490000CF911F910F91FF90EF90DF90CF90BF90CC
:104910000895EF920F931F93CF93DF93EC0189815A
:104920008823A9F010E08981181701F1CE0124E055
:10493000129F800D911D11240296FC0123812223D8
:1049400021F020E040E060E0B7DE1F5FECCF8D8516
:10495000FE01E80FF11DE80FF11DE12C00E020E061
:1049600048896F85878190850E944C06DF91CF91A1
:104970001F910F91EF9008956F927F928F929F9267
:10498000AF92BF92CF92DF92EF92FF920F931F935D
:10499000CF93DF93CDB7DEB72A970FB6F894DEBF7B
:1049A0000FBECDBF6C01B62EDC0111968C91882311
:1049B00009F490C0A12C992493943DEFEE24EA943D
:1049C000F12CF6018181A81609F405C18601B4E035
:1049D000AB9E000D111D11240E5F1F4FF8012381A6
:1049E000222309F475C04181642F637051F03603AE
:1049F000B0011124665F7F4FC7010E94223A862EC4
:104A000001C0812C842F8C7071F0642F669566959F
:104A100063703603B0011124665F7F4FC7010E94A7
:104A2000223A762E01C0712C842F807361F042955A
:104A300043703403B0011124665F7F4FC7010E94A9
:104A4000223A462F01C040E0D801EC91E295E77090
:104A5000EF5FF0E0829EC0011124BF010E94223A64
:104A6000862E6983729EC0011124BF010E94223AE2
:104A7000762E6A83429FC0011124BF010E94223A10
:104A8000662E6B832B2DAE014D5F5F4FBE016E5FB7
:104A90007F4FCE0101963A870E9492073A8588207F
:104AA00021F08981811101C09982772021F08A81CA
:104AB000811101C09A82662021F08B81811101C091
:104AC0009B822B814A816981C8013A87F5DD3A854D
:104AD000A39477CFD60112962C911297222309F432
:104AE0007AC013969C911397392F3F7081E1389FBC
:104AF000302D11243C8392959F70989F902D112406
:104B00009D8314969C911497392F3F70389F302DB8
:104B100011243E8392959F70989F902D1124998324
:104B200015969C911597392F3F70389F302D112481
:104B30003A8392959F70989F802D11248B8330E04B
:104B40008E01095F1F4F1E964C91BE016C5F7F4F17
:104B5000CE0101960E94B6076B2DC8010E94A507E1
:104B6000F6018585E80FF11DE80FF11DE984088540
:104B70002F81D60150964C9150971F966C9187814A
:104B800090850E944C066B2DCE0101960E94A507D0
:104B9000F6018385682F62956F709089690F8F7019
:104BA0009785AE014F5F5F4F890F0E94C238D601D3
:104BB0001C968C911C97682F62956F7050969C91F3
:104BC0005097690F8F701F969C91AE014F5F5F4F9A
:104BD000890F0E94C2382A960FB6F894DEBF0FBE26
:104BE000CDBFDF91CF911F910F91FF90EF90DF909C
:104BF000CF90BF90AF909F908F907F906F900895CF
:104C0000FB011282DC012C9121502C9381818111B6
:104C10000AC08081841738F050E04E5F5F4F90E00B
:104C2000481759071CF4CF010C94DC3808959F9263
:104C3000AF92BF92CF92DF92EF92FF920F931F93AA
:104C4000CF93DF93B62EA42E922EEC0122967C01F8
:104C50002AE1E20EF11C062F10E00E5F1F4F6C01DF
:104C60002FEFC21AD20A8A818823B9F089818A116A
:104C700005C04B2DBE01C601C3DF0FC0811107C0A7
:104C800088818B1520F090E0081719071CF4CE01DD
:104C90000E94DC388981890D89832396CE15DF0532
:104CA00011F7DF91CF911F910F91FF90EF90DF905F
:104CB000CF90BF90AF909F9008952F923F924F92C8
:104CC0005F926F927F928F929F92AF92BF92CF929C
:104CD000DF92EF92FF920F931F93CF93DF93CDB7A5
:104CE000DEB7C154D1400FB6F894DEBF0FBECDBFC2
:104CF0000E94FA1DC95DDE4F8883C752D1400E94D1
:104D00002D1EC55CDE4F8883CB53D1409E01295EAA
:104D10003E4FCD5DDE4F39832883C352D140C95EFB
:104D2000DE4F19821882C751D140C75EDE4F18820C
:104D3000C951D14087E0C65EDE4F8883CA51D14059
:104D40005E013DEFA30EB11CD5011C9211961C9281
:104D5000F501329688E1DF01282F1D922A95E9F7A7
:104D60004E0133EE830E911CD4011C9211961C92BD
:104D70007A97CE5CDE4FF983E883C253D14011921B
:104D80008A95E9F72E01F1EA4F0E511CD2011196D6
:104D90001C92C95DDE4F2881C752D14045E063E0D7
:104DA00083E04DDDCE5DDE4F1882C252D140CF5D33
:104DB000DE4F1882C152D140B1E0C35DDE4FB883EF
:104DC000CD52D140E5E0CF5CDE4FE883C153D14006
:104DD000C12CD12C7601C85DDE4F1882C852D1405B
:104DE000CB5DDE4F1882C552D140C05DDE4F1882C8
:104DF000C053D140C15DDE4F1882CF52D140F1E0A7
:104E0000C25DDE4FF883CE52D140C55DDE4F1882C1
:104E1000CB52D14011E0C65DDE4F1882CA52D1405C
:104E2000212C53E0352EC85CDE4F1882C853D14088
:104E3000CA5DDE4F1882C652D140320192012E5F08
:104E40003F4FC45CDE4F39832883CC53D140CD5DC6
:104E5000DE4F3881C352D140C25CDE4F3883CE531F
:104E6000D140CC5DDE4F4881C452D140C15CDE4FA1
:104E70004883CF53D140C5010196CC5CDE4F998366
:104E80008883C453D1400E947634C35DDE4F98813D
:104E9000CD52D140992309F4D5C0C25DDE4FA8811F
:104EA000CE52D140A150C25DDE4FA883CE52D14038
:104EB000A111C8C0CA5DDE4F9881C652D14097315A
:104EC00059F4B1E0C85CDE4FB883C853D140CA5D25
:104ED000DE4F1882C652D140CA5DDE4FE881C6520D
:104EE000D1400E2F10E0B8016355794F41E050E0FA
:104EF000C2010E94E53AD3019C9187E0282F291B2B
:104F00002770987F922B292F269526952695821B10
:104F10008770880F880F880F977C982B9C93119629
:104F20001C921197907C903409F027C71D961C9213
:104F30000DEA16E05801912C8A2D801BCA5DDE4FC8
:104F4000E881C652D1408E1308C7FBE09F9EB00196
:104F500011246C53794F4BE050E0C45CDE4F8881E4
:104F60009981CC53D1400E94E53AD20112968C919E
:104F700012971E968C931E9716962C912F708AE08E
:104F800090E0821B910997FD019695958795F20116
:104F90008787968192959F7080E1891B808BC85C82
:104FA000DE4FF881C853D140FF2329F0D2018C9104
:104FB000807C89608C93C95DDE4F6881C752D14087
:104FC000C201DADC0E94D73A9927F201608167704A
:104FD00070E00E94223AC05DDE4F8883C053D1400A
:104FE0000E94D73A9927D2016C916695669566958D
:104FF000677070E00E94223ACB5DDE4F8883C55215
:10500000D1400E94D73A63E00E94023AC85DDE4F69
:105010009883C852D140CA5DDE4FB881C652D14094
:10502000BF5FCA5DDE4FB883C652D140C35DDE4F5D
:105030001882CD52D140C55DDE4F1882CB52D1408F
:1050400011E0212C2394EBE92E1238C2C85DDE4F0B
:10505000F881C852D140FF5FC85DDE4FF883C85267
:10506000D140F33009F00CC1CC51DF4F8881C45ED0
:10507000D040883008F0FEC0CA5DDE4F1881C652AD
:10508000D140110FD30111960C91119701112AC033
:105090008CE3810F1F969C9000E810E0A82EB12CA5
:1050A000292D30E0D3011F964C911F9716968C91B5
:1050B0008F7090E0840F911D2817390709F4DAC02A
:1050C000F3016089892D0E948138882349F00E946C
:1050D000D73AB8010E94223A8A159B050CF4C0C049
:1050E0009394DECF4AE050E06FE070E0FE0131962D
:1050F0005F01CF010E94F53A812CF30124E0829EEA
:10510000E00DF11D11243296838181110EC083942C
:105110008012F3CF912C155E212F30E0C85DDE4F59
:1051200039832883C852D1403BC0818182958695BE
:10513000869583709280392D3370932E990C990C3B
:10514000982A8081837090E0890D911D019620E05E
:1051500030E0A92DA20FB0E0A817B907C1F2228054
:1051600026942694AA0DBB1D6C9170E0422D50E050
:10517000461757070CF42C922F5F3F4FEACF53018D
:1051800034E0939EA00CB11C1124A5014E5F5F4F2B
:105190005A01DA0113968C911397811107C09394E9
:1051A000D30111968C919812EACF64C08C9187FF3D
:1051B000F6CF11968C91119782958695869583707E
:1051C00012968C90B82DB3708B2E880C880C882A80
:1051D00000E010E0282C200E222D30E0F501818126
:1051E00082958695869583704281542F5370550F12
:1051F000550F582B8081837090E0850F911D01968B
:105200002817390761F24695469550E0E1E0F0E055
:10521000EC0FFD1FE20FF31F808190E084179507CC
:10522000E4F00E94D73A60E870E00E94223AC85D3C
:10523000DE4F28813981C852D140821793076CF420
:10524000D50112966C91669566956150AE014D51EF
:105250005F4F822D02DA882369F00F5F1F4FBACFAC
:10526000AE014D515F4FD30150966C91892DF5D908
:10527000811136CFC85DDE4F1882C852D140C9C5F2
:10528000F30180818770C05DDE4FF881C053D1404B
:10529000F8133DC0C2013DDBD30111963C9133238D
:1052A000F1F090E0F301B4E09B9FE00DF11D1124BB
:1052B00032968381811104C09F5F9313F3CFA4C5FD
:1052C0002281822F86958695815C8F73482F440FAB
:1052D000440F2370242B22838111EECFA0C5F3014C
:1052E0008281882309F490C54089242F30E05681BB
:1052F00052955F7080E190E0851B9109281739076E
:1053000019F44150408B80C54F5F408B7DC5C05D17
:10531000DE4FB881C053D140BF5FC05DDE4FB88360
:10532000C053D140912CF301808186958695869556
:105330008770CB5DDE4FF881C552D140F813B2C003
:10534000C201E7DA0E94D73A80FF02C001E001C043
:105350000FEFD2011196AC90AA2009F48AC0DE01A9
:1053600011968AE0FD0111928A95E9F780E090E0BC
:10537000E3EEF0E0EC0FFD1FE80FF91F248122237C
:1053800049F032812381FD01E30FF11D3081321795
:1053900008F4208303968831910551F7B12C202F12
:1053A000332727FD3095F30144E0B49EE00DF11D55
:1053B000112432968381882371F1818182958695AB
:1053C000869583704281142F1370110F110F182BC3
:1053D000812F90E0A1E0B0E0AC0FBD1FA80FB91F76
:1053E000A20FB31F6C9170E04695469550E064178C
:1053F00075070CF065C0013059F44081437050E0EE
:105400004F5F5F4F480F591F4A30510524F058C075
:10541000112309F455C0B394BA10C5CF90E0D3015D
:1054200011968C91981709F44BC0F30154E0959FA5
:10543000E00DF11D112432963181432F429546959E
:10544000469543702281822F8370880F880F842BAA
:10545000800F482F4295440F440F407C3F73342BFC
:1054600031838695869583702C7F282B22839F5FBE
:10547000D6CFF2018281882319F10F3F21F487856D
:1054800081110BC01DC00130D9F4278586818F7032
:1054900090E0820F911D0A979CF4F2018785800F9E
:1054A00087870EC0CB5DDE4FF881C552D140FF5FCC
:1054B000CB5DDE4FF883C552D14008C0912C07C0A8
:1054C000CB5DDE4F1882C552D14011E0212C21E086
:1054D000C55CDE4F4881CB53D14060E070E0C25CD8
:1054E000DE4F8881CE53D140C15CDE4F9881CF53CF
:1054F000D1400E94691C823019F0843031F019C00B
:1055000027E02315B4F001E003C037FC12C00FEF11
:10551000030DC95DDE4F2881C752D140CF5CDE4FFD
:105520004881C153D140602F832D89D9302E01E0AD
:1055300001C000E084E00E942707B82E85E00E94A9
:105540002707B1102BC0C250DF4F8881CE5FD040FB
:105550008830B0F5C350DF4F8881CD5FD0408111D6
:105560002FC0C114D104E104F10449F031E0C31AA1
:10557000D108E108F108C701B6010E94911DAE01F2
:1055800043505F4F61E081E0830D67D886E3C350ED
:10559000DF4F8883CD5FD04011E012C041E0B412EC
:1055A0000FC0813069F40E945A10811105C0C701F3
:1055B000B6010E94911D33C4C701B6010E94911D1E
:1055C000C350DF4F8881CD5FD040882331F08150B8
:1055D000C350DF4F8883CD5FD040911039C0C65D86
:1055E000DE4F5881CA52D140583091F421E04FE04B
:1055F000632DCE0183509F4F1ADBD30111968C91FE
:10560000C65DDE4F1882CA52D140882359F123C0AB
:10561000C65DDE4FB881CA52D140B73071F42FEF6A
:1056200040E0632DCE018D519F4F01DBE8E0C65D68
:10563000DE4FE883CA52D1400EC0C65DDE4FF8810E
:10564000CA52D140FF5FC65DDE4FF883CA52D140D7
:10565000112309F476C3C55DDE4F2881CB52D140BA
:10566000222349F1C15DDE4F3881CF52D1403F5FE7
:10567000C15DDE4F3883CF52D140303139F041E047
:10568000C55DDE4F4883CB52D14015C0C20141D920
:10569000F30185858F5F823009F0BFC3D3011D966A
:1056A0001C92C15DDE4F1882CF52D140C55DDE4FE6
:1056B0001882CB52D140F3018181811111C08281C6
:1056C000882371F020E040E1632DCE0183509F4F8D
:1056D000AEDAC95DDE4F6881C752D140C2014CD9F4
:1056E000DE01119680EAFD0111928A95E9F780E0CA
:1056F00090E021E03AE0EDEFF0E0EC0FFD1FE80F65
:10570000F91F4481442351F04281E3813E9FF0011F
:105710001124E40FF11DEA0FFB1F20832F5F039676
:105720008831910541F723EE30E02C0F3D1F265EB6
:105730003F4FC75CDE4F39832883C953D140CE5CCD
:10574000DE4F08811981C253D140C45DDE4F1882FB
:10575000CC52D1403AE043EE50E04C0F5D1F4F5F1A
:105760005F4FCA5CDE4F59834883C653D140CA5D40
:10577000DE4F5881C652D140852E912CA12CB12CE0
:10578000D8018C911196EC9111973E9FF001112454
:10579000E80FF11D41E050E04C0F5D1FE40FF51FD5
:1057A000208112968C91882309F442C0222309F4A7
:1057B0003FC0432DB801CA5CDE4F88819981C65332
:1057C000D140C05CDE4F2883C054D140CF5BDE4F58
:1057D0003883C154D14014DAC05CDE4F2881C054F4
:1057E000D140822F90E00197BC01660F771F680FB0
:1057F000791F6E5F7F4F8DEF90E08C0F9D1F680FBC
:10580000791F432DCC5CDE4F88819981C453D140F0
:10581000F7D9C80CD91CEA1CFB1C21E0C45DDE4F83
:105820002883CC52D140CF5BDE4F3881C154D14068
:105830000D5F1F4FC75CDE4F48815981C953D1406E
:105840000417150709F09CCF0DEF10E00C0F1D1F7A
:105850000E5F1F4F8DEF882E912C8C0E9D1E5AE1EE
:10586000850E911CCA5DDE4F9881C652D140892FAA
:1058700090E0CA5CDE4F99838883C653D140D8013B
:1058800012968C91882309F47EC1F30171817723EC
:1058900009F480C060E05301F4E06F9FA00CB11CDC
:1058A000112495012E5F3F4F5901D90113968C9118
:1058B0001397882309F46AC0F801808190E011965B
:1058C0003C911197329536953695337012962C91FE
:1058D0001297422F4370440F440F432B50E084171C
:1058E00095070CF453C0EC913E2F3370430F511DBC
:1058F000481759070CF44AC0D80111968C9190E0D2
:105900002695269530E0821793070CF43FC0E69564
:10591000E695E3702E0F311D28173907BCF1432D92
:10592000B801CC5CDE4F88819981C453D14068D9DD
:10593000F501838181508383811125C18081829506
:10594000877090E00196CA5CDE4F48815981C6534A
:10595000D140849F9001859F300D949F300D11247C
:10596000C901AA2797FDA095BA2FC80ED91EEA1E15
:10597000FB1E20E040E060E0C5010E945C2351E096
:10598000C45DDE4F5883CC52D140FDC06F5F6713BA
:1059900082CFF9C08281882309F4F5C0C8010E9432
:1059A0008838882309F4EFC0432DB801CC5CDE4F62
:1059B00088819981C453D14023D90E94D73A8770F6
:1059C0009927892B51F4B4E0CB0ED11CE11CF11CBA
:1059D000F30182818150828332C0D3011F963C91B2
:1059E0001F9750969C915097F80120811B968C919F
:1059F000482F42954F708F70830F281305C0842F56
:105A0000890F4181481779F0D3011C968C91482F5A
:105A100042954F708F70830F281317C0940FF801B1
:105A20008181891312C0F2E0CF0ED11CE11CF11C60
:105A3000D30112968C911297815012968C9321E08B
:105A4000C45DDE4F2883CC52D140D30112968C9195
:105A5000811199C0F201848182958F70C25EDE4F00
:105A60008883CE51D1408581982F9F70C15EDE4FD3
:105A70009883CF51D14082958F70C05EDE4F88836E
:105A8000C052D14017E019821A821B824CEB52E0BF
:105A9000BE016F5F7F4FC2010E94AD234CEB52E00D
:105AA000BE01625E7E4FC2010E94AD23115059F7C4
:105AB000912CF6E09F1212C0C55EDE4F1882CB51CA
:105AC000D140C45EDE4F1882CC51D140C35EDE4F60
:105AD0001882CD51D140A12CB12C0BC0C95DDE4F35
